:0408000007EF04F00A
:0A080800418296ED3FF02AEF3FF029
:10081A00000A0D53656C656363696F6E65206C61D0
:0D082A0073206C65747261733A0A0D000052
:107D4A00000E936E95921200016EACA2FED701C08E
:107D5A00ADFF12001B6EACA2FED71BC0ADFF120016
:107D6A00090EC26E000EC16E0C0EC06E1200C00E5D
:107D7A00F26EF00EF16E9D8C9E9C1200260EAC6E79
:107D8A00900EAB6E000EB06E670EAF6E480EB86EF8
:107D9A00948C948E1200870ED56E470ED76ED40E31
:107DAA00D66EF29404D0C2A2C282F2A4FCD7F2B474
:107DBA001200FBD7203C3E45414F53525249444C96
:107DCA004354554D50424756595148465A4AD1583C
:107DDA004B57BCEC3EF0C3EC3EF0B5EC3EF0A5ECE4
:107DEA003EF01B0E1C6E080E1D6E6CEC3FF012EC82
:107DFA003FF0FDD701500302F3CF05F0F4CF06F0B0
:107E0A0001500402F350062602500302F3500626DC
:107E1A0005C001F006C002F0120014D03F50010D57
:107E2A00210EF324D96E000EF420DA6EDF50AFEC87
:107E3A003EF0D0EC3EF03F2A080EAFEC3EF01D0EAD
:107E4A003F64ECD7000E3F6EE9D7BE0EF66E7D0E8C
:107E5A00F76E000EF86E00EE21F010EE1EF009002B
:107E6A00F5CFEEFFE550E150FAE1406A3F6A4190F2
:107E7A004192000EF86E080EF76E0001EEEF3EF02A
:107E8A0007C001F008C002F0000E046E2F0E036E48
:107E9A00FFEC3EF001C00BF002C00CF00BC009F081
:107EAA000CC00AF0091E0A1E094A0A2AFF0E0924F2
:107EBA000B6EFF0E0A200C6E0BC0D6FF0CC0D7FF4C
:107ECA00870ED56EF2A4FED7D59EF2941200000E4C
:107EDA0013D02050010D1CC01EF01DC01FF0F3501E
:107EEA001E26F4501F221EC0F6FF1FC0F7FF08000F
:107EFA00F550AFEC3EF02028206E2050010D1CC03A
:107F0A001EF01DC01FF0F3501E26F4501F221EC083
:107F1A00F6FF1FC0F7FF0800F5500009D8B4120099
:107F2A00D8D70600FACF0DF0FBCF0EF0E9CF0FF04D
:107F3A00EACF10F0E1CF11F0E2CF12F0D9CF13F06F
:107F4A00DACF14F0F3CF15F0F4CF16F0F6CF17F01E
:107F5A00F7CF18F0F8CF19F0F5CF1AF07F0EC464F6
:107F6A002BD0000E086EFA0E076E45EC3FF03F0468
:107F7A00D8A406D0080EA9EC3EF0080EA9EC3EF0F3
:107F8A00020E3F18D8A40AD0080EA9EC3EF0200E23
:107F9A00A9EC3EF0200EA9EC3EF00BD03F50010DAB
:107FAA00210EF324D96E000EF420DA6EDF50A9EC0C
:107FBA003EF0F284000E3F6E9E9C1AC0F5FF19C077
:107FCA00F8FF18C0F7FF17C0F6FF16C0F4FF15C078
:107FDA00F3FF14C0DAFF13C0D9FF12C0E2FF11C0C9
:107FEA00E1FF10C0EAFF0FC0E9FF0EC0FBFF0DC0A2
:067FFA00FAFF41921100A4
:020000040020DA
:08000000FFFFFFFFFFFFFFFF00
:020000040030CA
:0E000000240E3F1EFF8181FF0FC00FA00F4096
:00000001FF
